{
  "_format": "hh-sol-artifact-1",
  "contractName": "Voting",
  "sourceName": "contracts/Voting.sol",
  "abi": [
    {
      "inputs": [],
      "stateMutability": "nonpayable",
      "type": "constructor"
    },
    {
      "anonymous": false,
      "inputs": [
        {
          "indexed": false,
          "internalType": "uint256",
          "name": "candidateId",
          "type": "uint256"
        },
        {
          "indexed": false,
          "internalType": "string",
          "name": "name",
          "type": "string"
        }
      ],
      "name": "CandidateAdded",
      "type": "event"
    },
    {
      "anonymous": false,
      "inputs": [
        {
          "indexed": false,
          "internalType": "address",
          "name": "voter",
          "type": "address"
        },
        {
          "indexed": false,
          "internalType": "uint256",
          "name": "candidateId",
          "type": "uint256"
        }
      ],
      "name": "Voted",
      "type": "event"
    },
    {
      "anonymous": false,
      "inputs": [
        {
          "indexed": false,
          "internalType": "address",
          "name": "voter",
          "type": "address"
        }
      ],
      "name": "VoterRegistered",
      "type": "event"
    },
    {
      "inputs": [
        {
          "internalType": "string",
          "name": "_name",
          "type": "string"
        }
      ],
      "name": "addCandidate",
      "outputs": [],
      "stateMutability": "nonpayable",
      "type": "function"
    },
    {
      "inputs": [],
      "name": "admin",
      "outputs": [
        {
          "internalType": "address",
          "name": "",
          "type": "address"
        }
      ],
      "stateMutability": "view",
      "type": "function"
    },
    {
      "inputs": [
        {
          "internalType": "uint256",
          "name": "",
          "type": "uint256"
        }
      ],
      "name": "candidates",
      "outputs": [
        {
          "internalType": "uint256",
          "name": "id",
          "type": "uint256"
        },
        {
          "internalType": "string",
          "name": "name",
          "type": "string"
        },
        {
          "internalType": "uint256",
          "name": "voteCount",
          "type": "uint256"
        }
      ],
      "stateMutability": "view",
      "type": "function"
    },
    {
      "inputs": [],
      "name": "candidatesCount",
      "outputs": [
        {
          "internalType": "uint256",
          "name": "",
          "type": "uint256"
        }
      ],
      "stateMutability": "view",
      "type": "function"
    },
    {
      "inputs": [],
      "name": "electionStarted",
      "outputs": [
        {
          "internalType": "bool",
          "name": "",
          "type": "bool"
        }
      ],
      "stateMutability": "view",
      "type": "function"
    },
    {
      "inputs": [
        {
          "internalType": "uint256",
          "name": "_id",
          "type": "uint256"
        }
      ],
      "name": "getCandidate",
      "outputs": [
        {
          "internalType": "string",
          "name": "",
          "type": "string"
        },
        {
          "internalType": "uint256",
          "name": "",
          "type": "uint256"
        }
      ],
      "stateMutability": "view",
      "type": "function"
    },
    {
      "inputs": [
        {
          "internalType": "address",
          "name": "",
          "type": "address"
        }
      ],
      "name": "hasVoted",
      "outputs": [
        {
          "internalType": "bool",
          "name": "",
          "type": "bool"
        }
      ],
      "stateMutability": "view",
      "type": "function"
    },
    {
      "inputs": [
        {
          "internalType": "address",
          "name": "_voter",
          "type": "address"
        }
      ],
      "name": "registerVoter",
      "outputs": [],
      "stateMutability": "nonpayable",
      "type": "function"
    },
    {
      "inputs": [
        {
          "internalType": "address",
          "name": "",
          "type": "address"
        }
      ],
      "name": "registeredVoters",
      "outputs": [
        {
          "internalType": "bool",
          "name": "",
          "type": "bool"
        }
      ],
      "stateMutability": "view",
      "type": "function"
    },
    {
      "inputs": [],
      "name": "startElection",
      "outputs": [],
      "stateMutability": "nonpayable",
      "type": "function"
    },
    {
      "inputs": [
        {
          "internalType": "uint256",
          "name": "_candidateId",
          "type": "uint256"
        }
      ],
      "name": "vote",
      "outputs": [],
      "stateMutability": "nonpayable",
      "type": "function"
    }
  ],
  "bytecode": "0x608060405234801561001057600080fd5b50336000806101000a81548173ffffffffffffffffffffffffffffffffffffffff021916908373ffffffffffffffffffffffffffffffffffffffff1602179055506000600260006101000a81548160ff02191690831515021790555061148b8061007b6000396000f3fe608060405234801561001057600080fd5b50600436106100a95760003560e01c806338db6dd31161007157806338db6dd31461017b578063462e91ec1461019757806362d73eb8146101b3578063a9ff6df1146101bd578063d5346da1146101ed578063f851a4401461020b576100a9565b80630121b93f146100ae57806309eef43e146100ca5780632d35a8a2146100fa5780633477ee2e1461011857806335b8e8201461014a575b600080fd5b6100c860048036038101906100c39190610ac0565b610229565b005b6100e460048036038101906100df9190610b4b565b6104a2565b6040516100f19190610b93565b60405180910390f35b6101026104c2565b60405161010f9190610bbd565b60405180910390f35b610132600480360381019061012d9190610ac0565b6104c8565b60405161014193929190610c68565b60405180910390f35b610164600480360381019061015f9190610ac0565b61057a565b604051610172929190610ca6565b60405180910390f35b61019560048036038101906101909190610b4b565b610633565b005b6101b160048036038101906101ac9190610d3b565b6107a3565b005b6101bb61097e565b005b6101d760048036038101906101d29190610b4b565b610a29565b6040516101e49190610b93565b60405180910390f35b6101f5610a49565b6040516102029190610b93565b60405180910390f35b610213610a5c565b6040516102209190610d97565b60405180910390f35b600260009054906101000a900460ff16610278576040517f08c379a000000000000000000000000000000000000000000000000000000000815260040161026f90610dfe565b60405180910390fd5b600460003373ffffffffffffffffffffffffffffffffffffffff1673ffffffffffffffffffffffffffffffffffffffff16815260200190815260200160002060009054906101000a900460ff16610304576040517f08c379a00000000000000000000000000000000000000000000000000000000081526004016102fb90610e6a565b60405180910390fd5b600560003373ffffffffffffffffffffffffffffffffffffffff1673ffffffffffffffffffffffffffffffffffffffff16815260200190815260200160002060009054906101000a900460ff1615610391576040517f08c379a000000000000000000000000000000000000000000000000000000000815260040161038890610ed6565b60405180910390fd5b6000811180156103a357506001548111155b6103e2576040517f08c379a00000000000000000000000000000000000000000000000000000000081526004016103d990610f42565b60405180910390fd5b6001600560003373ffffffffffffffffffffffffffffffffffffffff1673ffffffffffffffffffffffffffffffffffffffff16815260200190815260200160002060006101000a81548160ff02191690831515021790555060036000828152602001908152602001600020600201600081548092919061046190610f91565b91905055507f4d99b957a2bc29a30ebd96a7be8e68fe50a3c701db28a91436490b7d53870ca43382604051610497929190610fd9565b60405180910390a150565b60056020528060005260406000206000915054906101000a900460ff1681565b60015481565b60036020528060005260406000206000915090508060000154908060010180546104f190611031565b80601f016020809104026020016040519081016040528092919081815260200182805461051d90611031565b801561056a5780601f1061053f5761010080835404028352916020019161056a565b820191906000526020600020905b81548152906001019060200180831161054d57829003601f168201915b5050505050908060020154905083565b60606000806003600085815260200190815260200160002090508060010181600201548180546105a990611031565b80601f01602080910402602001604051908101604052809291908181526020018280546105d590611031565b80156106225780601f106105f757610100808354040283529160200191610622565b820191906000526020600020905b81548152906001019060200180831161060557829003601f168201915b505050505091509250925050915091565b60008054906101000a900473ffffffffffffffffffffffffffffffffffffffff1673ffffffffffffffffffffffffffffffffffffffff163373ffffffffffffffffffffffffffffffffffffffff16146106c1576040517f08c379a00000000000000000000000000000000000000000000000000000000081526004016106b8906110ae565b60405180910390fd5b600260009054906101000a900460ff1615610711576040517f08c379a00000000000000000000000000000000000000000000000000000000081526004016107089061111a565b60405180910390fd5b6001600460008373ffffffffffffffffffffffffffffffffffffffff1673ffffffffffffffffffffffffffffffffffffffff16815260200190815260200160002060006101000a81548160ff0219169083151502179055507fb6be2187d059cc2a55fe29e0e503b566e1e0f8c8780096e185429350acffd3dd816040516107989190610d97565b60405180910390a150565b60008054906101000a900473ffffffffffffffffffffffffffffffffffffffff1673ffffffffffffffffffffffffffffffffffffffff163373ffffffffffffffffffffffffffffffffffffffff1614610831576040517f08c379a0000000000000000000000000000000000000000000000000000000008152600401610828906110ae565b60405180910390fd5b600260009054906101000a900460ff1615610881576040517f08c379a00000000000000000000000000000000000000000000000000000000081526004016108789061111a565b60405180910390fd5b6001600081548092919061089490610f91565b91905055506040518060600160405280600154815260200183838080601f016020809104026020016040519081016040528093929190818152602001838380828437600081840152601f19601f820116905080830192505050505050508152602001600081525060036000600154815260200190815260200160002060008201518160000155602082015181600101908161092f9190611315565b50604082015181600201559050507fe83b2a43e7e82d975c8a0a6d2f045153c869e111136a34d1889ab7b598e396a3600154838360405161097293929190611423565b60405180910390a15050565b60008054906101000a900473ffffffffffffffffffffffffffffffffffffffff1673ffffffffffffffffffffffffffffffffffffffff163373ffffffffffffffffffffffffffffffffffffffff1614610a0c576040517f08c379a0000000000000000000000000000000000000000000000000000000008152600401610a03906110ae565b60405180910390fd5b6001600260006101000a81548160ff021916908315150217905550565b60046020528060005260406000206000915054906101000a900460ff1681565b600260009054906101000a900460ff1681565b60008054906101000a900473ffffffffffffffffffffffffffffffffffffffff1681565b600080fd5b600080fd5b6000819050919050565b610a9d81610a8a565b8114610aa857600080fd5b50565b600081359050610aba81610a94565b92915050565b600060208284031215610ad657610ad5610a80565b5b6000610ae484828501610aab565b91505092915050565b600073ffffffffffffffffffffffffffffffffffffffff82169050919050565b6000610b1882610aed565b9050919050565b610b2881610b0d565b8114610b3357600080fd5b50565b600081359050610b4581610b1f565b92915050565b600060208284031215610b6157610b60610a80565b5b6000610b6f84828501610b36565b91505092915050565b60008115159050919050565b610b8d81610b78565b82525050565b6000602082019050610ba86000830184610b84565b92915050565b610bb781610a8a565b82525050565b6000602082019050610bd26000830184610bae565b92915050565b600081519050919050565b600082825260208201905092915050565b60005b83811015610c12578082015181840152602081019050610bf7565b60008484015250505050565b6000601f19601f8301169050919050565b6000610c3a82610bd8565b610c448185610be3565b9350610c54818560208601610bf4565b610c5d81610c1e565b840191505092915050565b6000606082019050610c7d6000830186610bae565b8181036020830152610c8f8185610c2f565b9050610c9e6040830184610bae565b949350505050565b60006040820190508181036000830152610cc08185610c2f565b9050610ccf6020830184610bae565b9392505050565b600080fd5b600080fd5b600080fd5b60008083601f840112610cfb57610cfa610cd6565b5b8235905067ffffffffffffffff811115610d1857610d17610cdb565b5b602083019150836001820283011115610d3457610d33610ce0565b5b9250929050565b60008060208385031215610d5257610d51610a80565b5b600083013567ffffffffffffffff811115610d7057610d6f610a85565b5b610d7c85828601610ce5565b92509250509250929050565b610d9181610b0d565b82525050565b6000602082019050610dac6000830184610d88565b92915050565b7f456c656374696f6e206e6f742073746172746564000000000000000000000000600082015250565b6000610de8601483610be3565b9150610df382610db2565b602082019050919050565b60006020820190508181036000830152610e1781610ddb565b9050919050565b7f4e6f742072656769737465726564000000000000000000000000000000000000600082015250565b6000610e54600e83610be3565b9150610e5f82610e1e565b602082019050919050565b60006020820190508181036000830152610e8381610e47565b9050919050565b7f416c726561647920766f74656400000000000000000000000000000000000000600082015250565b6000610ec0600d83610be3565b9150610ecb82610e8a565b602082019050919050565b60006020820190508181036000830152610eef81610eb3565b9050919050565b7f496e76616c69642063616e646964617465000000000000000000000000000000600082015250565b6000610f2c601183610be3565b9150610f3782610ef6565b602082019050919050565b60006020820190508181036000830152610f5b81610f1f565b9050919050565b7f4e487b7100000000000000000000000000000000000000000000000000000000600052601160045260246000fd5b6000610f9c82610a8a565b91507fffffffffffffffffffffffffffffffffffffffffffffffffffffffffffffffff8203610fce57610fcd610f62565b5b600182019050919050565b6000604082019050610fee6000830185610d88565b610ffb6020830184610bae565b9392505050565b7f4e487b7100000000000000000000000000000000000000000000000000000000600052602260045260246000fd5b6000600282049050600182168061104957607f821691505b60208210810361105c5761105b611002565b5b50919050565b7f4f6e6c792061646d696e20616c6c6f7765640000000000000000000000000000600082015250565b6000611098601283610be3565b91506110a382611062565b602082019050919050565b600060208201905081810360008301526110c78161108b565b9050919050565b7f456c656374696f6e20616c726561647920737461727465640000000000000000600082015250565b6000611104601883610be3565b915061110f826110ce565b602082019050919050565b60006020820190508181036000830152611133816110f7565b9050919050565b7f4e487b7100000000000000000000000000000000000000000000000000000000600052604160045260246000fd5b60008190508160005260206000209050919050565b60006020601f8301049050919050565b600082821b905092915050565b6000600883026111cb7fffffffffffffffffffffffffffffffffffffffffffffffffffffffffffffffff8261118e565b6111d5868361118e565b95508019841693508086168417925050509392505050565b6000819050919050565b600061121261120d61120884610a8a565b6111ed565b610a8a565b9050919050565b6000819050919050565b61122c836111f7565b61124061123882611219565b84845461119b565b825550505050565b600090565b611255611248565b611260818484611223565b505050565b5b818110156112845761127960008261124d565b600181019050611266565b5050565b601f8211156112c95761129a81611169565b6112a38461117e565b810160208510156112b2578190505b6112c66112be8561117e565b830182611265565b50505b505050565b600082821c905092915050565b60006112ec600019846008026112ce565b1980831691505092915050565b600061130583836112db565b9150826002028217905092915050565b61131e82610bd8565b67ffffffffffffffff8111156113375761133661113a565b5b6113418254611031565b61134c828285611288565b600060209050601f83116001811461137f576000841561136d578287015190505b61137785826112f9565b8655506113df565b601f19841661138d86611169565b60005b828110156113b557848901518255600182019150602085019450602081019050611390565b868310156113d257848901516113ce601f8916826112db565b8355505b6001600288020188555050505b505050505050565b82818337600083830152505050565b60006114028385610be3565b935061140f8385846113e7565b61141883610c1e565b840190509392505050565b60006040820190506114386000830186610bae565b818103602083015261144b8184866113f6565b905094935050505056fea2646970667358221220e5c029701a040c9290e2b0206f6539de6ce04d529a65c3b877d4faa393188ca764736f6c63430008110033",
  "linkReferences": {},
  "deployedLinkReferences": {}
}